:100000000C942A000C9434000C9434000C943400AA
:100010000C9434000C9434000C9434000C94340090
:100020000C9434000C9434000C9434000C94340080
:100030000C9434000C9434000C9434000C94340070
:100040000C9434000C9434000C9434000C94340060
:100050000C94340011241FBECFE5D8E0DEBFCDBF25
:100060000E94E1000C942E010C94000087B1806482
:1000700087B987B18F7787B987B18F7D87B986B107
:100080008F7D86B986B1877F86B986B1816086B952
:1000900086B1826086B986B1846086B986B180688F
:1000A00086B908958032B0F46115710599F097B161
:1000B000907E97B997B1892B87B986B1806486B94C
:1000C000349BFECF86B1806186B984B195B1FB01C6
:1000D000918380830895843008F072C0683008F0FE
:1000E0006FC0423008F06CC0813001F130F08230D6
:1000F000B1F1833009F44CC00895413059F42AB36A
:1001000081E090E002C0880F991F6A95E2F7822B88
:100110008ABB08952AB381E090E002C0880F991F3E
:100120006A95E2F7809582238ABB0895413059F49D
:1001300027B381E090E002C0880F991F6A95E2F72B
:10014000822B87BB089527B381E090E002C0880F1F
:10015000991F6A95E2F78095822387BB0895413005
:1001600059F424B381E090E002C0880F991F6A958A
:10017000E2F7822B84BB089524B381E090E002C0B3
:10018000880F991F6A95E2F78095822384BB0895B2
:10019000413059F421B381E090E002C0880F991FEB
:1001A0006A95E2F7822B81BB089521B381E090E04C
:1001B00002C0880F991F6A95E2F78095822381BB60
:1001C0000895CF93DF9300D0CDB7DEB740E064E071
:1001D00080E00E946B0040E065E080E00E946B00E0
:1001E00040E066E080E00E946B0040E067E080E075
:1001F0000E946B0040E060E083E00E946B0041E001
:1002000061E083E00E946B000E941C010E943600A6
:10021000BE016F5F7F4F86E00E9452008981845F3C
:100220000E942A012FEF89E698E1215080409040FA
:10023000E1F700C00000ECCF86E880BD8AB18B7F7B
:100240008AB987E689B98AB188608AB98AB180613A
:100250008AB908958CB95D9BFECF0895F894FFCFBD
:00000001FF
