:100000000C942A000C943C000C943C000C943C0092
:100010000C943C000C943C000C943C000C943C0070
:100020000C943C000C943C000C9421010C94E000D6
:100030000C943C000C943C000C943C000C943C0050
:100040000C943C000C943C000C943C000C943C0040
:100050000C943C0011241FBECFE5D8E0DEBFCDBF1D
:1000600020E0A0E6B0E001C01D92A836B207E1F79B
:100070000E94B4000C948D010C940000843008F0B0
:1000800072C0683008F06FC0423008F06CC0813038
:1000900001F130F08230B1F1833009F44CC00895A1
:1000A000413059F42AB381E090E002C0880F991FD3
:1000B0006A95E2F7822B8ABB08952AB381E090E02B
:1000C00002C0880F991F6A95E2F7809582238ABB48
:1000D0000895413059F427B381E090E002C0880FC1
:1000E000991F6A95E2F7822B87BB089527B381E0B9
:1000F00090E002C0880F991F6A95E2F780958223ED
:1001000087BB0895413059F424B381E090E002C0E8
:10011000880F991F6A95E2F7822B84BB089524B358
:1001200081E090E002C0880F991F6A95E2F7809500
:10013000822384BB0895413059F421B381E090E0DB
:1001400002C0880F991F6A95E2F7822B81BB089540
:1001500021B381E090E002C0880F991F6A95E2F711
:100160008095822381BB089541E065E083E00E9491
:100170003E008AE50E94BD00FFCFCF93DF93282F7A
:100180003AEF2303C00111249C012C51384AA3E803
:10019000BDE20E947E0196958795929582958F701B
:1001A00089279F708927EC01C750DF4F0E945A01B1
:1001B000CE010E947B010E947101DF91CF910895D1
:1001C0001F920F920FB60F9211242F933F934F93CC
:1001D0005F936F937F938F939F93AF93BF93EF93AF
:1001E000FF93809162009091630001969093630069
:1001F0008093620086E082BF8091620090916300EC
:10020000883E934069F486E082BF109263001092AA
:100210006200E0916600F0916700309709F009955F
:10022000FF91EF91BF91AF919F918F917F916F91CE
:100230005F914F913F912F910F900FBE0F901F90A4
:1002400018951F920F920FB60F9211242F933F9380
:100250004F935F936F937F938F939F93AF93BF93CE
:10026000EF93FF93809160009091610001969093CD
:10027000610080936000883E934059F410926100C1
:1002800010926000E0916400F0916500309709F0F1
:100290000995FF91EF91BF91AF919F918F917F91C0
:1002A0006F915F914F913F912F910F900FBE0F90E3
:1002B0001F9018958FB58E7F8FBD8FB582608FBDD3
:1002C0008EB588608EBD8EB580618EBD8FB58F7BFB
:1002D0008FBD8FB580688FBD87E893E197BD86BDE0
:1002E00008958EB581608EBD8EB582608EBD8EB54F
:1002F0008B7F8EBD08959BBD8ABD0895A29FB001DE
:10030000B39FC001A39F700D811D1124911DB29F49
:0E031000700D811D1124911D0895F894FFCFEA
:00000001FF
