:100000000C942A000C94D8010C9401020C942A023E
:100010000C9447000C9447000C9447000C94470044
:100020000C9447000C9447000C9447000C94470034
:100030000C9447000C9447000C9447000C94470024
:100040000C9447000C9447000C9447000C94470014
:100050000C94470011241FBECFE5D8E0DEBFCDBF12
:1000600010E0A0E6B0E0E0E4F7E002C005900D92F9
:10007000A038B107D9F720E0A0E8B0E001C01D9298
:10008000A638B207E1F70E9465030C949E030C9416
:100090000000843008F072C0683008F06FC0423051
:1000A00008F06CC0813001F130F08230B1F1833062
:1000B00009F44CC00895413059F42AB381E090E02E
:1000C00002C0880F991F6A95E2F7822B8ABB0895B8
:1000D0002AB381E090E002C0880F991F6A95E2F789
:1000E000809582238ABB0895413059F427B381E07B
:1000F00090E002C0880F991F6A95E2F7822B87BBB8
:10010000089527B381E090E002C0880F991F6A9597
:10011000E2F78095822387BB0895413059F424B3D8
:1001200081E090E002C0880F991F6A95E2F7822B68
:1001300084BB089524B381E090E002C0880F991F2A
:100140006A95E2F78095822384BB0895413059F483
:1001500021B381E090E002C0880F991F6A95E2F711
:10016000822B81BB089521B381E090E002C0880F0B
:10017000991F6A95E2F78095822381BB08958430A8
:1001800008F072C0683008F06FC0423008F06CC0F0
:10019000813001F130F08230B1F1833009F44CC08C
:1001A0000895413059F42BB381E090E002C0880FEC
:1001B000991F6A95E2F7822B8BBB08952BB381E0E0
:1001C00090E002C0880F991F6A95E2F7809582231C
:1001D0008BBB0895413059F428B381E090E002C010
:1001E000880F991F6A95E2F7822B88BB089528B380
:1001F00081E090E002C0880F991F6A95E2F7809530
:10020000822388BB0895413059F425B381E090E002
:1002100002C0880F991F6A95E2F7822B85BB08956B
:1002200025B381E090E002C0880F991F6A95E2F73C
:100230008095822385BB0895413059F422B381E033
:1002400090E002C0880F991F6A95E2F7822B82BB6B
:10025000089522B381E090E002C0880F991F6A954B
:10026000E2F78095822382BB08958430A8F5683038
:1002700098F5813089F028F08230C9F0833011F18F
:1002800008952BB381E090E002C0880F991F6A9512
:10029000E2F782278BBB089528B381E090E002C08B
:1002A000880F991F6A95E2F7822788BB089525B3C6
:1002B00081E090E002C0880F991F6A95E2F78227DB
:1002C00085BB089522B381E090E002C0880F991F9A
:1002D0006A95E2F7822782BB0895813061F120F0B0
:1002E000823009F44FC00895611107C085B781605D
:1002F00085BF85B7826085BF1AC0613039F485B784
:100300008E7F85BF85B7826085BF11C0623039F4AA
:1003100085B78E7F85BF85B78D7F85BF08C0633069
:1003200031F485B7816085BF85B78D7F85BF8BB779
:1003300080648BBF0895611107C085B7846085BF55
:1003400085B7886085BF1AC0613039F485B78B7F67
:1003500085BF85B7886085BF11C0623039F485B725
:100360008B7F85BF85B7877F85BF08C0633031F439
:1003700085B7846085BF85B7877F85BF8BB7806869
:100380008BBF0895611104C084B7806484BF05C029
:10039000613019F484B78F7B84BF8BB780628BBFC9
:1003A0000895009721F0909385008093840008952C
:1003B0001F920F920FB60F9211242F933F934F93DA
:1003C0005F936F937F938F939F93AF93BF93EF93BD
:1003D000FF93E0918400F0918500309709F0099532
:1003E000FF91EF91BF91AF919F918F917F916F910D
:1003F0005F914F913F912F910F900FBE0F901F90E3
:1004000018951F920F920FB60F9211242F933F93BE
:100410004F935F936F937F938F939F93AF93BF930C
:10042000EF93FF93E0918200F0918300309709F001
:100430000995FF91EF91BF91AF919F918F917F911E
:100440006F915F914F913F912F910F900FBE0F9041
:100450001F9018951F920F920FB60F9211242F9391
:100460003F934F935F936F937F938F939F93AF933C
:10047000BF93EF93FF93E0918000F091810030975C
:1004800009F00995FF91EF91BF91AF919F918F91E5
:100490007F916F915F914F913F912F910F900FBE80
:1004A0000F901F9018958FB780688FBF0895CF93D6
:1004B000C82F80FF06C041E064E080E00E94BF00DA
:1004C00005C040E064E080E00E94BF00C1FF06C0BC
:1004D00041E065E080E00E94BF0005C040E065E0CB
:1004E00080E00E94BF00C2FF06C041E066E080E0FD
:1004F0000E94BF0005C040E066E080E00E94BF00AF
:10050000C3FF06C041E067E080E00E94BF0005C075
:1005100040E067E080E00E94BF00CF910895CF9354
:10052000C82F40E061E081E00E94BF0040E062E04F
:1005300081E00E94BF008C2F82958F700E9457022D
:1005400041E063E081E00E94BF008FE99FE00197F6
:10055000F1F700C0000040E063E081E00E94BF00CE
:100560008C2F0E94570241E063E081E00E94BF00AF
:100570008FE99FE00197F1F700C0000040E063E0E1
:1005800081E00E94BF00CF9108952FE785EB91E0B5
:10059000215080409040E1F700C0000040E061E061
:1005A00081E00E94BF0040E062E081E00E94BF0065
:1005B00082E00E94570241E063E081E00E94BF00B8
:1005C0008FE99FE00197F1F700C0000040E063E091
:1005D00081E00E94BF0088E20E948F0290EF9A950E
:1005E000F1F78FE00E948F0220EF2A95F1F781E06A
:1005F0000E948F028FE39FE10197F1F700C0000096
:1006000086E00E948F020895CF93C82F41E061E0F9
:1006100081E00E94BF0040E062E081E00E94BF00F4
:100620008C2F82958F700E94570241E063E081E039
:100630000E94BF008FE99FE00197F1F700C0000022
:1006400040E063E081E00E94BF008C2F0E945702CF
:1006500041E063E081E00E94BF008FE99FE00197E5
:10066000F1F700C0000040E063E081E00E94BF00BD
:10067000CF9108950F931F93CF93009729F40CC047
:100680000E940403CF5F02C08C01C0E0F801EC0FB0
:10069000F11D80818111F4CFCF911F910F910895A9
:1006A00081E00E948F028FE39FE10197F1F700C084
:1006B0000000089563E080E00E9435010E9450032D
:1006C00080E690E00E943A03089541E064E080E013
:1006D0000E94490041E065E080E00E94490041E05D
:1006E00066E080E00E94490041E067E080E00E940F
:1006F000490041E061E081E00E94490041E062E0A0
:1007000081E00E94490041E063E081E00E944900ED
:1007100041E063E080E00E9449000E94C50280E75A
:1007200090E00E943A030E9453028AE593E00E94FF
:10073000D10160E080E00E946D01FFCFF894FFCF0F
:1007400041686D656420416C61616C6F746679000D
:10075000507265737320427574746F6E203200009E
:00000001FF
