S01000005353445F746573742E737265630B
S11300000C942A000C9434000C9434000C943400A6
S11300100C9434000C9434000C9434000C9434008C
S11300200C9434000C9434000C9434000C9434007C
S11300300C9434000C9434000C9434000C9434006C
S11300400C9434000C9434000C9434000C9434005C
S11300500C94340011241FBECFE5D8E0DEBFCDBF21
S11300600E9422010C94E9010C940000843008F0F1
S113007072C0683008F06FC0423008F06CC0813044
S113008001F130F08230B1F1833009F44CC00895AD
S1130090413059F42AB381E090E002C0880F991FDF
S11300A06A95E2F7822B8ABB08952AB381E090E037
S11300B002C0880F991F6A95E2F7809582238ABB54
S11300C00895413059F427B381E090E002C0880FCD
S11300D0991F6A95E2F7822B87BB089527B381E0C5
S11300E090E002C0880F991F6A95E2F780958223F9
S11300F087BB0895413059F424B381E090E002C0F5
S1130100880F991F6A95E2F7822B84BB089524B364
S113011081E090E002C0880F991F6A95E2F780950C
S1130120822384BB0895413059F421B381E090E0E7
S113013002C0880F991F6A95E2F7822B81BB08954C
S113014021B381E090E002C0880F991F6A95E2F71D
S11301508095822381BB0895843008F072C0683092
S113016008F06FC0423008F06CC0813001F130F00B
S11301708230B1F1833009F44CC00895413059F410
S11301802BB381E090E002C0880F991F6A95E2F7D3
S1130190822B8BBB08952BB381E090E002C0880FC3
S11301A0991F6A95E2F7809582238BBB08954130AD
S11301B059F428B381E090E002C0880F991F6A9532
S11301C0E2F7822B88BB089528B381E090E002C057
S11301D0880F991F6A95E2F78095822388BB08955A
S11301E0413059F425B381E090E002C0880F991F93
S11301F06A95E2F7822B85BB089525B381E090E0F0
S113020002C0880F991F6A95E2F78095822385BB07
S11302100895413059F422B381E090E002C0880F80
S1130220991F6A95E2F7822B82BB089522B381E07D
S113023090E002C0880F991F6A95E2F780958223A7
S113024082BB08950E947F0110E01EC02FEF81EF52
S11302509BE2215080409040E1F700C00000C0E0E4
S11302600BC06D2F812F0E94B2018FE59DE601978F
S1130270F1F700C00000CF5FCA3098F3DF5F01C020
S1130280D0E0DA3018F31F5F1A30D0F3DDCFCF930C
S1130290C82F80FF06C041E064E080E00E94AC000B
S11302A005C040E064E080E00E94AC00C1FF06C0ED
S11302B041E065E080E00E94AC0005C040E065E0FC
S11302C080E00E94AC00C2FF06C041E066E080E02E
S11302D00E94AC0005C040E066E080E00E94AC00F3
S11302E0C3FF06C041E067E080E00E94AC0005C0A7
S11302F040E067E080E00E94AC00CF91089541E0C7
S113030064E080E00E94360041E065E080E00E9405
S1130310360041E066E080E00E94360041E067E09C
S113032080E00E94360041E061E081E00E943600F6
S113033041E062E081E00E94360041E063E081E058
S11303400E94360041E061E081E00E94AC0041E09F
S113035062E081E00E94AC0040E063E081E00E9442
S1130360AC000895CF93DF93C82FD62F41E061E00E
S113037081E00E94AC0040E062E081E00E94AC00B9
S113038040E063E081E00E94AC008D2F0E944701B1
S11303908FE59DE60197F1F700C0000040E061E0C1
S11303A081E00E94AC0041E062E081E00E94AC0088
S11303B040E063E081E00E94AC008C2F0E94470182
S11303C08FE59DE60197F1F700C00000DF91CF9122
S10903D00895F894FFCF2C
S9030000FC
