S010000044494F5F746573742E7372656319
S11300000C942A000C9434000C9434000C943400A6
S11300100C9434000C9434000C9434000C9434008C
S11300200C9434000C9434000C9434000C9434007C
S11300300C9434000C9434000C9434000C9434006C
S11300400C9434000C9434000C9434000C9434005C
S11300500C94340011241FBECFE5D8E0DEBFCDBF21
S11300600E94FB010C9411020C940000CF93843085
S113007090F5683080F5C62F813081F028F0823009
S1130080B9F08330F9F027C041E080E00E94D70046
S113009041E06C2F80E00E944D011DC041E081E0F1
S11300A00E94D70041E06C2F81E00E944D0113C0F3
S11300B041E082E00E94D70041E06C2F82E00E9480
S11300C04D0109C041E083E00E94D70041E06C2F5C
S11300D083E00E944D01CF910895CF93843090F531
S11300E0683080F5C62F813081F028F08230B9F075
S11300F08330F9F027C041E080E00E94D70040E05F
S11301006C2F80E00E944D011DC041E081E00E94FF
S1130110D70040E06C2F81E00E944D0113C041E004
S113012082E00E94D70040E06C2F82E00E944D01E3
S113013009C041E083E00E94D70040E06C2F83E0D7
S11301400E944D01CF910895CF93843070F56830AB
S113015060F5C62F813079F028F08230A9F0833021
S1130160E1F023C041E080E00E94D7006C2F80E0E2
S11301700E94C3011AC041E081E00E94D7006C2FA5
S113018081E00E94C30111C041E082E00E94D700D7
S11301906C2F82E00E94C30108C041E083E00E940A
S11301A0D7006C2F83E00E94C301CF91089584305F
S11301B008F072C0683008F06FC0423008F06CC0BC
S11301C0813001F130F08230B1F1833009F44CC058
S11301D00895413059F42AB381E090E002C0880FB9
S11301E0991F6A95E2F7822B8ABB08952AB381E0AE
S11301F090E002C0880F991F6A95E2F780958223E8
S11302008ABB0895413059F427B381E090E002C0DD
S1130210880F991F6A95E2F7822B87BB089527B34D
S113022081E090E002C0880F991F6A95E2F78095FB
S1130230822387BB0895413059F424B381E090E0D0
S113024002C0880F991F6A95E2F7822B84BB089538
S113025024B381E090E002C0880F991F6A95E2F709
S11302608095822384BB0895413059F421B381E001
S113027090E002C0880F991F6A95E2F7822B81BB38
S1130280089521B381E090E002C0880F991F6A9518
S1130290E2F78095822381BB0895843008F072C010
S11302A0683008F06FC0423008F06CC0813001F152
S11302B030F08230B1F1833009F44CC008954130FC
S11302C059F42BB381E090E002C0880F991F6A951E
S11302D0E2F7822B8BBB08952BB381E090E002C040
S11302E0880F991F6A95E2F7809582238BBB089546
S11302F0413059F428B381E090E002C0880F991F7F
S11303006A95E2F7822B88BB089528B381E090E0D8
S113031002C0880F991F6A95E2F78095822388BBF3
S11303200895413059F425B381E090E002C0880F6C
S1130330991F6A95E2F7822B85BB089525B381E066
S113034090E002C0880F991F6A95E2F78095822396
S113035085BB0895413059F422B381E090E002C096
S1130360880F991F6A95E2F7822B82BB089522B306
S113037081E090E002C0880F991F6A95E2F78095AA
S1130380822382BB08958430A8F5683098F58130C3
S113039089F028F08230C9F0833011F108952BB32D
S11303A081E090E002C0880F991F6A95E2F78227E6
S11303B08BBB089528B381E090E002C0880F991F99
S11303C06A95E2F7822788BB089525B381E090E01F
S11303D002C0880F991F6A95E2F7822785BB0895AA
S11303E022B381E090E002C0880F991F6A95E2F77A
S11303F0822782BB089562E082E00E94360067E0B3
S113040082E00E946D0063E083E00E94A4002FEF6D
S113041084E39CE0215080409040E1F700C000005C
S1090420F2CFF894FFCFB7
S9030000FC
