S01000005457495F746573742E7372656301
S11300000C942A000C9434000C9434000C943400A6
S11300100C9434000C9434000C9434000C9434008C
S11300200C9434000C9434000C9434000C9434007C
S11300300C9434000C9434000C9434000C9434006C
S11300400C9434000C9434000C9434000C9434005C
S11300500C94340011241FBECFE5D8E0DEBFCDBF21
S11300600E9448020C94FA020C940000843008F0B8
S113007072C0683008F06FC0423008F06CC0813044
S113008001F130F08230B1F1833009F44CC00895AD
S1130090413059F42AB381E090E002C0880F991FDF
S11300A06A95E2F7822B8ABB08952AB381E090E037
S11300B002C0880F991F6A95E2F7809582238ABB54
S11300C00895413059F427B381E090E002C0880FCD
S11300D0991F6A95E2F7822B87BB089527B381E0C5
S11300E090E002C0880F991F6A95E2F780958223F9
S11300F087BB0895413059F424B381E090E002C0F5
S1130100880F991F6A95E2F7822B84BB089524B364
S113011081E090E002C0880F991F6A95E2F780950C
S1130120822384BB0895413059F421B381E090E0E7
S113013002C0880F991F6A95E2F7822B81BB08954C
S113014021B381E090E002C0880F991F6A95E2F71D
S11301508095822381BB0895843008F072C0683092
S113016008F06FC0423008F06CC0813001F130F00B
S11301708230B1F1833009F44CC00895413059F410
S11301802BB381E090E002C0880F991F6A95E2F7D3
S1130190822B8BBB08952BB381E090E002C0880FC3
S11301A0991F6A95E2F7809582238BBB08954130AD
S11301B059F428B381E090E002C0880F991F6A9532
S11301C0E2F7822B88BB089528B381E090E002C057
S11301D0880F991F6A95E2F78095822388BB08955A
S11301E0413059F425B381E090E002C0880F991F93
S11301F06A95E2F7822B85BB089525B381E090E0F0
S113020002C0880F991F6A95E2F78095822385BB07
S11302100895413059F422B381E090E002C0880F80
S1130220991F6A95E2F7822B82BB089522B381E07D
S113023090E002C0880F991F6A95E2F780958223A7
S113024082BB08951F93CF93DF93D82FC62F192F06
S113025010650E949302812F0E94B6028D2F0E9486
S1130260E0028C2F0E94E0020E94AF028FE19EE424
S11302700197F1F700C00000DF91CF911F9108951D
S11302800F931F93CF93DF93D82F8B01C92FC06592
S11302900E9493028C2F0E94B6028D2F0E94E002CE
S11302A00E94A1028C2F0E94CB02C8010E94EC0282
S11302B00E94AF028FE19EE40197F1F700C00000B5
S11302C0DF91CF911F910F910895CF93C82F80FF95
S11302D006C041E064E080E00E94AC0005C040E05C
S11302E064E080E00E94AC00C1FF06C041E065E02C
S11302F080E00E94AC0005C040E065E080E00E9420
S1130300AC00C2FF06C041E066E080E00E94AC00A1
S113031005C040E066E080E00E94AC00C3FF06C078
S113032041E067E080E00E94AC0005C040E067E087
S113033080E00E94AC00CF910895CF93C82F40E095
S113034061E081E00E94AC0040E062E081E00E9454
S1130350AC008C2F82958F700E94650141E063E0B0
S113036081E00E94AC008FE99FE00197F1F700C0A3
S1130370000040E063E081E00E94AC008C2F0E940A
S1130380650141E063E081E00E94AC008FE99FE0F9
S11303900197F1F700C0000040E063E081E00E94B3
S11303A0AC00CF9108952FE785EB91E02150804078
S11303B09040E1F700C0000040E061E081E00E946D
S11303C0AC0040E062E081E00E94AC0082E00E9468
S11303D0650141E063E081E00E94AC008FE99FE0A9
S11303E00197F1F700C0000040E063E081E00E9463
S11303F0AC0088E20E949D0190EF9A95F1F78DE0A0
S11304000E949D0120EF2A95F1F781E00E949D0151
S11304108FE39FE10197F1F700C0000086E00E949E
S11304209D010895CF93C82F41E061E081E00E94CF
S1130430AC0040E062E081E00E94AC008C2F829529
S11304408F700E94650141E063E081E00E94AC008E
S11304508FE99FE00197F1F700C0000040E063E0FE
S113046081E00E94AC008C2F0E94650141E063E0B2
S113047081E00E94AC008FE99FE00197F1F700C092
S1130480000040E063E081E00E94AC00CF91089559
S1130490CF93DF931F92CDB7DEB741E064E080E0F5
S11304A00E94360041E065E080E00E94360041E0B1
S11304B066E080E00E94360041E067E080E00E9450
S11304C0360041E061E081E00E94360041E062E0F4
S11304D081E00E94360041E063E081E00E94360042
S11304E00E94D3010E94840261E48EE590E00E94A0
S11304F02201BE016F5F7F4F8EE590E00E944001B4
S113050089810E941202FFCF81B18E7F81B981B1AE
S11305108D7F81B98CE080B986B7806486BF86B749
S1130520846086BF089586B7806286BF86B7806878
S113053086BF06B607FEFDCF81B1887F8830E1F71C
S1130540089586B7806286BF86B7806886BF06B680
S113055007FEFDCF81B1887F8031E1F7089586B72A
S1130560806186BF86B7806886BF0895882394F02B
S1130570880F83B983B18E7F83B986B78F7D86BF99
S113058086B7806886BF06B607FEFDCF81B1887F37
S11305908831E1F70895882394F0880F83B983B1F3
S11305A0816083B986B78F7D86BF86B7806886BF32
S11305B006B607FEFDCF81B1887F8034E1F7089548
S11305C083B986B7806886BF06B607FEFDCF81B1C2
S11305D0887F8832E1F70895FC0196B7906896BF4A
S11305E006B607FEFDCF91B1987F9035E1F783B150
S10B05F080830895F894FFCF05
S9030000FC
