:100000000C942A000C943C000C943C000C943C0092
:100010000C943C000C943C000C943C000C943C0070
:100020000C943C000C943C000C94E0010C943C00BB
:100030000C943C000C943C000C943C000C943C0050
:100040000C943C000C943C000C943C000C943C0040
:100050000C943C0011241FBECFE5D8E0DEBFCDBF1D
:1000600020E0A0E6B0E001C01D92A837B207E1F79A
:100070000E9486010C941D020C940000843008F04C
:1000800072C0683008F06FC0423008F06CC0813038
:1000900001F130F08230B1F1833009F44CC00895A1
:1000A000413059F42AB381E090E002C0880F991FD3
:1000B0006A95E2F7822B8ABB08952AB381E090E02B
:1000C00002C0880F991F6A95E2F7809582238ABB48
:1000D0000895413059F427B381E090E002C0880FC1
:1000E000991F6A95E2F7822B87BB089527B381E0B9
:1000F00090E002C0880F991F6A95E2F780958223ED
:1001000087BB0895413059F424B381E090E002C0E8
:10011000880F991F6A95E2F7822B84BB089524B358
:1001200081E090E002C0880F991F6A95E2F7809500
:10013000822384BB0895413059F421B381E090E0DB
:1001400002C0880F991F6A95E2F7822B81BB089540
:1001500021B381E090E002C0880F991F6A95E2F711
:100160008095822381BB08958430A8F5683098F586
:10017000813089F028F08230C9F0833011F1089580
:100180002BB381E090E002C0880F991F6A95E2F7D7
:1001900082278BBB089528B381E090E002C0880FCE
:1001A000991F6A95E2F7822788BB089525B381E0FD
:1001B00090E002C0880F991F6A95E2F7822785BBFD
:1001C000089522B381E090E002C0880F991F6A95DC
:1001D000E2F7822782BB08958FB780688FBF0895AA
:1001E000CF9380916000909161000196909361009F
:1001F00080936000C0E032C02C2F30E0F901EE0F98
:10020000FF1FEE0FFF1FE20FF31FEC59FF4F84811A
:10021000823019F58091600090916100F901EE0F34
:10022000FF1FEE0FFF1FE20FF31FEC59FF4F62811C
:1002300073810E940902892B81F4F901EE0FFF1FDF
:10024000EE0FFF1F2E0F3F1FF901EC59FF4F0190DA
:10025000F081E02D309709F00995CF5FC43060F24E
:10026000CF9108950E94EC000E94C30189EF0E9483
:10027000CD0180EF90E00E94D9010E94CF01089546
:10028000843008F541155105F1F090E0FC01EE0FC6
:10029000FF1FEE0FFF1FE80FF91FEC59FF4F2081E2
:1002A0003181232B81F4FC01EE0FFF1FEE0FFF1FA6
:1002B0008E0F9F1FFC01EC59FF4F738362835183A4
:1002C000408382E08483089590E0FC01EE0FFF1FDD
:1002D000EE0FFF1F8E0F9F1FFC01EC59FF4F118285
:1002E0001082089562E082E00E94B400089567E001
:1002F00082E00E94B400089563E083E00E94B400AD
:10030000089563E080E00E94B400089541E062E057
:1003100082E00E943E0041E067E082E00E943E00F1
:1003200041E063E083E00E943E0041E063E080E062
:100330000E943E0042E751E068EE73E080E00E94D8
:10034000400147E751E068EE73E081E00E94400120
:100350004CE751E06CED75E082E00E94400141E81D
:1003600051E060ED77E083E00E94400181E00E946F
:10037000640147E751E060ED77E081E00E944001D1
:100380000E943201FFCF83B78F7B83BF83B7886022
:1003900083BF89B7826089BF08958CBF089583B7F2
:1003A000816083BF83B7826083BF83B78B7F83BF46
:1003B0000895009721F09093630080936200089560
:1003C0001F920F920FB60F9211242F933F934F93CA
:1003D0005F936F937F938F939F93AF93BF93EF93AD
:1003E000FF93E0916200F0916300309709F0099566
:1003F000FF91EF91BF91AF919F918F917F916F91FD
:100400005F914F913F912F910F900FBE0F901F90D2
:100410001895AA1BBB1B51E107C0AA1FBB1FA6173B
:10042000B70710F0A61BB70B881F991F5A95A9F79D
:0E04300080959095BC01CD010895F894FFCF02
:00000001FF
