:100000000C942A000C9434000C9434000C943400AA
:100010000C9434000C9434000C9434000C94340090
:100020000C9434000C9434000C9434000C94340080
:100030000C9434000C9434000C9434000C94340070
:100040000C9434000C9434000C9434000C94340060
:100050000C94340011241FBECFE5D8E0DEBFCDBF25
:100060000E9422010C94F1020C940000843008F0EC
:1000700072C0683008F06FC0423008F06CC0813048
:1000800001F130F08230B1F1833009F44CC00895B1
:10009000413059F42AB381E090E002C0880F991FE3
:1000A0006A95E2F7822B8ABB08952AB381E090E03B
:1000B00002C0880F991F6A95E2F7809582238ABB58
:1000C0000895413059F427B381E090E002C0880FD1
:1000D000991F6A95E2F7822B87BB089527B381E0C9
:1000E00090E002C0880F991F6A95E2F780958223FD
:1000F00087BB0895413059F424B381E090E002C0F9
:10010000880F991F6A95E2F7822B84BB089524B368
:1001100081E090E002C0880F991F6A95E2F7809510
:10012000822384BB0895413059F421B381E090E0EB
:1001300002C0880F991F6A95E2F7822B81BB089550
:1001400021B381E090E002C0880F991F6A95E2F721
:100150008095822381BB0895843008F072C0683096
:1001600008F06FC0423008F06CC0813001F130F00F
:100170008230B1F1833009F44CC00895413059F414
:100180002BB381E090E002C0880F991F6A95E2F7D7
:10019000822B8BBB08952BB381E090E002C0880FC7
:1001A000991F6A95E2F7809582238BBB08954130B1
:1001B00059F428B381E090E002C0880F991F6A9536
:1001C000E2F7822B88BB089528B381E090E002C05B
:1001D000880F991F6A95E2F78095822388BB08955E
:1001E000413059F425B381E090E002C0880F991F97
:1001F0006A95E2F7822B85BB089525B381E090E0F4
:1002000002C0880F991F6A95E2F78095822385BB0B
:100210000895413059F422B381E090E002C0880F84
:10022000991F6A95E2F7822B82BB089522B381E081
:1002300090E002C0880F991F6A95E2F780958223AB
:1002400082BB089584EB90E00E942701FFCF0F93BB
:100250001F93CF93DF93BC0180E090E00E94630284
:1002600023E333E343E35FE30E94C2010E943402CD
:100270008B0141E064E080E00E94360041E065E0EF
:1002800080E00E94360041E066E080E00E94360097
:1002900041E067E080E00E943600C0E0D0E069C045
:1002A00040E064E080E00E94AC0041E065E080E076
:1002B0000E94AC0041E066E080E00E94AC0041E0BA
:1002C00067E080E00E94AC008FE39CE90197F1F7C2
:1002D00000C0000041E064E080E00E94AC0040E02B
:1002E00065E080E00E94AC0041E066E080E00E94B2
:1002F000AC0041E067E080E00E94AC008FE39CE945
:100300000197F1F700C0000041E064E080E00E9446
:10031000AC0041E065E080E00E94AC0040E066E0B7
:1003200080E00E94AC0041E067E080E00E94AC0009
:100330008FE39CE90197F1F700C0000041E064E021
:1003400080E00E94AC0041E065E080E00E94AC00EB
:1003500041E066E080E00E94AC0040E067E080E0C1
:100360000E94AC008FE39CE90197F1F700C0000008
:100370002196C017D10708F493CFDF91CF911F9139
:100380000F9108950E94D6010C94B7020E94B0020A
:1003900058F00E94A90240F029F45F3F29F00C9424
:1003A000A00251110C94EB020C94A6020E94C80208
:1003B00068F39923B1F3552391F3951B550BBB2794
:1003C000AA2762177307840738F09F5F5F4F220FD9
:1003D000331F441FAA1FA9F335D00E2E3AF0E0E8D0
:1003E00032D091505040E695001CCAF72BD0FE2F1A
:1003F00029D0660F771F881FBB1F261737074807AE
:10040000AB07B0E809F0BB0B802DBF01FF27935865
:100410005F4F3AF09E3F510578F00C94A0020C9487
:10042000EB025F3FE4F3983ED4F3869577956795AA
:10043000B795F7959F5FC9F7880F911D969587959A
:1004400097F90895E1E0660F771F881FBB1F6217B9
:1004500073078407BA0720F0621B730B840BBA0B77
:10046000EE1F88F7E09508950E94D00288F09F570C
:1004700098F0B92F9927B751B0F0E1F0660F771FC8
:10048000881F991F1AF0BA95C9F714C0B13091F0BE
:100490000E94EA02B1E008950C94EA02672F782FD7
:1004A0008827B85F39F0B93FCCF386957795679583
:1004B000B395D9F73EF490958095709561957F4FEF
:1004C0008F4F9F4F0895E89409C097FB3EF4909595
:1004D0008095709561957F4F8F4F9F4F9923A9F01D
:1004E000F92F96E9BB279395F695879577956795AC
:1004F000B795F111F8CFFAF4BB0F11F460FF1BC0F0
:100500006F5F7F4F8F4F9F4F16C0882311F096E982
:1005100011C0772321F09EE8872F762F05C0662330
:1005200071F096E8862F70E060E02AF09A95660FE9
:10053000771F881FDAF7880F9695879597F90895A2
:1005400097F99F6780E870E060E008959FEF80EC86
:10055000089500240A941616170618060906089529
:1005600000240A9412161306140605060895092E8F
:100570000394000C11F4882352F0BB0F40F4BF2BFE
:1005800011F460FF04C06F5F7F4F8F4F9F4F08953E
:1005900057FD9058440F551F59F05F3F71F0479534
:1005A000880F97FB991F61F09F3F79F08795089519
:1005B000121613061406551FF2CF4695F1DF08C038
:1005C000161617061806991FF1CF86957105610555
:1005D00008940895E894BB2766277727CB0197F9FD
:0605E0000895F894FFCF1E
:00000001FF
