S01300005357495443485F746573742E7372656320
S11300000C942A000C9434000C9434000C943400A6
S11300100C9434000C9434000C9434000C9434008C
S11300200C9434000C9434000C9434000C9434007C
S11300300C9434000C9434000C9434000C9434006C
S11300400C9434000C9434000C9434000C9434005C
S11300500C94340011241FBECFE5D8E0DEBFCDBF21
S11300600E94AC010C9416020C940000843008F039
S113007072C0683008F06FC0423008F06CC0813044
S113008001F130F08230B1F1833009F44CC00895AD
S1130090413059F42AB381E090E002C0880F991FDF
S11300A06A95E2F7822B8ABB08952AB381E090E037
S11300B002C0880F991F6A95E2F7809582238ABB54
S11300C00895413059F427B381E090E002C0880FCD
S11300D0991F6A95E2F7822B87BB089527B381E0C5
S11300E090E002C0880F991F6A95E2F780958223F9
S11300F087BB0895413059F424B381E090E002C0F5
S1130100880F991F6A95E2F7822B84BB089524B364
S113011081E090E002C0880F991F6A95E2F780950C
S1130120822384BB0895413059F421B381E090E0E7
S113013002C0880F991F6A95E2F7822B81BB08954C
S113014021B381E090E002C0880F991F6A95E2F71D
S11301508095822381BB0895843008F072C0683092
S113016008F06FC0423008F06CC0813001F130F00B
S11301708230B1F1833009F44CC00895413059F410
S11301802BB381E090E002C0880F991F6A95E2F7D3
S1130190822B8BBB08952BB381E090E002C0880FC3
S11301A0991F6A95E2F7809582238BBB08954130AD
S11301B059F428B381E090E002C0880F991F6A9532
S11301C0E2F7822B88BB089528B381E090E002C057
S11301D0880F991F6A95E2F78095822388BB08955A
S11301E0413059F425B381E090E002C0880F991F93
S11301F06A95E2F7822B85BB089525B381E090E0F0
S113020002C0880F991F6A95E2F78095822385BB07
S11302100895413059F422B381E090E002C0880F80
S1130220991F6A95E2F7822B82BB089522B381E07D
S113023090E002C0880F991F6A95E2F780958223A7
S113024082BB0895843008F04EC0683008F04BC07B
S11302504115510509F447C08130B1F028F08230CE
S113026019F1833089F1089589B390E002C095951E
S113027087956A95E2F780FF04C081E0FA018083E4
S11302800895FA011082089586B390E002C095950E
S113029087956A95E2F780FF04C081E0FA018083C4
S11302A00895FA011082089583B390E002C09595F1
S11302B087956A95E2F780FF04C081E0FA018083A4
S11302C00895FA011082089580B390E002C09595D4
S11302D087956A95E2F780FF04C081E0FA01808384
S11302E00895FA01108208958430A8F5683098F5CD
S11302F0813089F028F08230C9F0833011F10895FB
S11303002BB381E090E002C0880F991F6A95E2F751
S1130310822B8BBB089528B381E090E002C0880F44
S1130320991F6A95E2F7822B88BB089525B381E073
S113033090E002C0880F991F6A95E2F7822B85BB73
S1130340089522B381E090E002C0880F991F6A9556
S1130350E2F7822B82BB0895CF93DF931F92CDB730
S1130360DEB740E060E081E00E94360060E081E0BA
S11303700E9474019E012F5F3F4F41E060E081E0E5
S11303800E94DD018981813059F441E062E082E01C
S11303900E94AC0041E063E080E00E94AC00EACF40
S11303A08111E8CF40E062E082E00E94AC0040E0CE
S11303B063E080E00E94AC00DDCFEF92FF921F93D8
S11303C0CF93DF931F92CDB7DEB7843040F568300A
S11303D030F52115310519F1423008F57901142F52
S11303E0AE014F5F5F4F0E942201113059F48981A1
S11303F0813019F4F701808312C0811110C0F70114
S113040010820DC011110BC08981813019F4F701DC
S1130410108205C0811103C081E0F70180830F9031
S1130420DF91CF911F91FF90EF900895F894FFCF43
S9030000FC
