S01100004B50445F74657374322E73726563E3
S11300000C942A000C943F000C943F000C943F0085
S11300100C943F000C943F000C943F000C943F0060
S11300200C943F000C943F000C943F000C943F0050
S11300300C943F000C943F000C943F000C943F0040
S11300400C943F000C943F000C943F000C943F0030
S11300500C943F0011241FBECFE5D8E0DEBFCDBF16
S113006010E0A0E6B0E0E8ECF5E002C005900D92E7
S1130070A037B107D9F70E9452020C94E2020C9403
S11300800000843008F072C0683008F06FC042305D
S113009008F06CC0813001F130F08230B1F183306E
S11300A009F44CC00895413059F42AB381E090E03A
S11300B002C0880F991F6A95E2F7822B8ABB0895C4
S11300C02AB381E090E002C0880F991F6A95E2F795
S11300D0809582238ABB0895413059F427B381E087
S11300E090E002C0880F991F6A95E2F7822B87BBC4
S11300F0089527B381E090E002C0880F991F6A95A4
S1130100E2F78095822387BB0895413059F424B3E4
S113011081E090E002C0880F991F6A95E2F7822B74
S113012084BB089524B381E090E002C0880F991F36
S11301306A95E2F78095822384BB0895413059F48F
S113014021B381E090E002C0880F991F6A95E2F71D
S1130150822B81BB089521B381E090E002C0880F17
S1130160991F6A95E2F78095822381BB08958430B4
S113017008F072C0683008F06FC0423008F06CC0FC
S1130180813001F130F08230B1F1833009F44CC098
S11301900895413059F42BB381E090E002C0880FF8
S11301A0991F6A95E2F7822B8BBB08952BB381E0EC
S11301B090E002C0880F991F6A95E2F78095822328
S11301C08BBB0895413059F428B381E090E002C01C
S11301D0880F991F6A95E2F7822B88BB089528B38C
S11301E081E090E002C0880F991F6A95E2F780953C
S11301F0822388BB0895413059F425B381E090E00F
S113020002C0880F991F6A95E2F7822B85BB089577
S113021025B381E090E002C0880F991F6A95E2F748
S11302208095822385BB0895413059F422B381E03F
S113023090E002C0880F991F6A95E2F7822B82BB77
S1130240089522B381E090E002C0880F991F6A9557
S1130250E2F78095822382BB0895843008F04EC073
S1130260683008F04BC04115510509F447C081308E
S1130270B1F028F0823019F1833089F1089589B3FF
S113028090E002C0959587956A95E2F780FF04C0D7
S113029081E0FA0180830895FA011082089586B3FB
S11302A090E002C0959587956A95E2F780FF04C0B7
S11302B081E0FA0180830895FA011082089583B3DE
S11302C090E002C0959587956A95E2F780FF04C097
S11302D081E0FA0180830895FA011082089580B3C1
S11302E090E002C0959587956A95E2F780FF04C077
S11302F081E0FA0180830895FA0110820895843020
S1130300A8F5683098F5813089F028F08230C9F07A
S1130310833011F108952BB381E090E002C0880F7F
S1130320991F6A95E2F7822B8BBB089528B381E06D
S113033090E002C0880F991F6A95E2F7822B88BB70
S1130340089525B381E090E002C0880F991F6A9553
S1130350E2F7822B85BB089522B381E090E002C0CE
S1130360880F991F6A95E2F7822B82BB08957F92CA
S11303708F929F92AF92BF92CF92DF92EF92FF92B1
S11303800F931F93CF93DF93CDB7DEB769970FB663
S1130390F894DEBF0FBECDBF5C0134E0398325E0A5
S11303A02A8396E09B8387E08C8383E08D833E835E
S11303B02F83988790E1E0E6F0E0DE011996019042
S11303C00D929A95E1F7A114B10409F457C08FEF87
S11303D0F5018083712C912C4DC0C92CD12CE1E006
S11303E0F0E0EC0FFD1FEC0DFD1D808040E0682D5A
S11303F080E00E94B70010E032C0E12EF12CE5E06D
S1130400F0E0EC0FFD1FEE0DFF1D0081AE01475E15
S11304105F4F602F82E00E942D01898D81111EC0E3
S1130420EE0CFF1CEE0CFF1C81E090E08C0F9D1F76
S1130430E80EF91EF701EC0DFD1D8085F5018083A2
S113044007C0AE01475E5F4F602F82E00E942D011E
S1130450898D8823B1F37724739403C01F5F14300C
S113046060F241E0682D80E00E94B700F1E07F1661
S113047029F0939483E0891508F0AFCF69960FB6FD
S1130480F894DEBF0FBECDBFDF91CF911F910F91C6
S1130490FF90EF90DF90CF90BF90AF909F908F90A0
S11304A07F900895CF93DF931F92CDB7DEB741E0DD
S11304B064E080E00E94410041E065E080E00E9449
S11304C0410041E066E080E00E94410041E067E0D5
S11304D080E00E94410040E063E082E00E9441002D
S11304E040E064E082E00E94410040E065E082E098
S11304F00E94410040E066E082E00E94410063E027
S113050082E00E947F0164E082E00E947F0165E056
S113051082E00E947F0166E082E00E947F0141E068
S113052062E082E00E94410041E067E082E00E94D4
S1130530410041E063E083E00E944100CE01019666
S11305400E94B70189818F3FC9F3813379F018F490
S1130550803331F027C0823379F0833399F022C09D
S113056041E062E082E00E94B700E8CF41E067E04A
S113057082E00E94B700E2CF41E063E083E00E94A2
S1130580B700DCCF41E062E082E00E94B70041E0C6
S113059067E082E00E94B70041E063E083E00E94EC
S11305A0B700CCCF40E062E082E00E94B70040E0B8
S11305B067E082E00E94B70040E063E083E00E94CD
S10B05C0B700BCCFF894FFCF93
S11305C83132334134353642373839432A302344BB
S9030000FC
