:100000000C942A000C943C000C943C000C943C0092
:100010000C943C000C943C000C943C000C943C0070
:100020000C943C000C943C000C946B020C942A023F
:100030000C943C000C943C000C943C000C943C0050
:100040000C943C000C943C000C943C000C943C0040
:100050000C943C0011241FBECFE5D8E0DEBFCDBF1D
:1000600020E0A0E6B0E001C01D92A836B207E1F79B
:100070000E94D7010C94A4020C940000843008F074
:1000800072C0683008F06FC0423008F06CC0813038
:1000900001F130F08230B1F1833009F44CC00895A1
:1000A000413059F42AB381E090E002C0880F991FD3
:1000B0006A95E2F7822B8ABB08952AB381E090E02B
:1000C00002C0880F991F6A95E2F7809582238ABB48
:1000D0000895413059F427B381E090E002C0880FC1
:1000E000991F6A95E2F7822B87BB089527B381E0B9
:1000F00090E002C0880F991F6A95E2F780958223ED
:1001000087BB0895413059F424B381E090E002C0E8
:10011000880F991F6A95E2F7822B84BB089524B358
:1001200081E090E002C0880F991F6A95E2F7809500
:10013000822384BB0895413059F421B381E090E0DB
:1001400002C0880F991F6A95E2F7822B81BB089540
:1001500021B381E090E002C0880F991F6A95E2F711
:100160008095822381BB0895843008F072C0683086
:1001700008F06FC0423008F06CC0813001F130F0FF
:100180008230B1F1833009F44CC00895413059F404
:100190002BB381E090E002C0880F991F6A95E2F7C7
:1001A000822B8BBB08952BB381E090E002C0880FB7
:1001B000991F6A95E2F7809582238BBB08954130A1
:1001C00059F428B381E090E002C0880F991F6A9526
:1001D000E2F7822B88BB089528B381E090E002C04B
:1001E000880F991F6A95E2F78095822388BB08954E
:1001F000413059F425B381E090E002C0880F991F87
:100200006A95E2F7822B85BB089525B381E090E0E3
:1002100002C0880F991F6A95E2F78095822385BBFB
:100220000895413059F422B381E090E002C0880F74
:10023000991F6A95E2F7822B82BB089522B381E071
:1002400090E002C0880F991F6A95E2F7809582239B
:1002500082BB0895CF93C82F80FF06C041E064E0C1
:1002600080E00E94B40005C040E064E080E00E94AD
:10027000B400C1FF06C041E065E080E00E94B40028
:1002800005C040E065E080E00E94B400C2FF06C007
:1002900041E066E080E00E94B40005C040E066E016
:1002A00080E00E94B400C3FF06C041E067E080E048
:1002B0000E94B40005C040E067E080E00E94B40006
:1002C000CF910895CF93C82F40E061E081E00E9474
:1002D000B40040E062E081E00E94B4008C2F82957F
:1002E0008F700E942A0141E063E081E00E94B40027
:1002F0008FE99FE00197F1F700C0000040E063E064
:1003000081E00E94B4008C2F0E942A0141E063E04A
:1003100081E00E94B4008FE99FE00197F1F700C0EF
:10032000000040E063E081E00E94B400CF910895B6
:100330002FE785EB91E0215080409040E1F700C02D
:10034000000040E061E081E00E94B40040E062E033
:1003500081E00E94B40082E00E942A0141E063E053
:1003600081E00E94B4008FE99FE00197F1F700C09F
:10037000000040E063E081E00E94B40088E20E9457
:10038000620190EF9A95F1F78FE00E94620120EFF1
:100390002A95F1F781E00E9462018FE39FE10197C6
:1003A000F1F700C0000086E00E946201089541E07C
:1003B00064E080E00E943E0041E065E080E00E9451
:1003C0003E0041E066E080E00E943E0041E067E0E0
:1003D00080E00E943E0041E061E081E00E943E003A
:1003E00041E062E081E00E943E0041E063E081E0A4
:1003F0000E943E0041E063E081E00E943E000E94D6
:1004000098010E9411020E942002C0E08C2F0E94DD
:100410001E02CF5F8FE39CE90197F1F700C0000057
:10042000F5CF83B7806483BF83B7886083BF83B70A
:100430008F7E83BF83B7806283BF08958CBF08958A
:1004400083B7816083BF83B7826083BF83B78B7FAD
:1004500083BF08951F920F920FB60F9211242F930E
:100460003F934F935F936F937F938F939F93AF933C
:10047000BF93EF93FF938091620090916300019688
:10048000909363008093620086E082BF8091620057
:1004900090916300883E934069F486E082BF109299
:1004A000630010926200E0916600F091670030975F
:1004B00009F00995FF91EF91BF91AF919F918F91B5
:1004C0007F916F915F914F913F912F910F900FBE50
:1004D0000F901F9018951F920F920FB60F92112434
:1004E0002F933F934F935F936F937F938F939F933C
:1004F000AF93BF93EF93FF93809160009091610061
:1005000001969093610080936000883E934059F477
:100510001092610010926000E0916400F09165001B
:10052000309709F00995FF91EF91BF91AF919F919D
:100530008F917F916F915F914F913F912F910F908C
:0C0540000FBE0F901F901895F894FFCF8D
:00000001FF
