:100000000C942A000C9434000C9434000C943400AA
:100010000C9434000C9434000C9434000C94340090
:100020000C9434000C9434000C9434000C94340080
:100030000C9434000C9434000C9434000C94340070
:100040000C9434000C9434000C9434000C94340060
:100050000C94340011241FBECFE5D8E0DEBFCDBF25
:100060000E9436000C944E000C94000081B388600E
:1000700081BB84B3846084BB92B388E0892782BB50
:1000800095B384E0892785BB2FE78AE196E021506C
:1000900080409040E1F700C00000EECFF894FFCF21
:00000001FF
